{
  "contractName": "Asignatura",
  "abi": [
    {
      "inputs": [
        {
          "internalType": "string",
          "name": "_nombre",
          "type": "string"
        },
        {
          "internalType": "string",
          "name": "_curso",
          "type": "string"
        }
      ],
      "payable": false,
      "stateMutability": "nonpayable",
      "type": "constructor"
    },
    {
      "constant": true,
      "inputs": [
        {
          "internalType": "address",
          "name": "",
          "type": "address"
        },
        {
          "internalType": "uint256",
          "name": "",
          "type": "uint256"
        }
      ],
      "name": "calificaciones",
      "outputs": [
        {
          "internalType": "enum Asignatura.TipoNota",
          "name": "tipo",
          "type": "uint8"
        },
        {
          "internalType": "uint256",
          "name": "calificacion",
          "type": "uint256"
        }
      ],
      "payable": false,
      "stateMutability": "view",
      "type": "function"
    },
    {
      "constant": true,
      "inputs": [],
      "name": "curso",
      "outputs": [
        {
          "internalType": "string",
          "name": "",
          "type": "string"
        }
      ],
      "payable": false,
      "stateMutability": "view",
      "type": "function"
    },
    {
      "constant": true,
      "inputs": [
        {
          "internalType": "address",
          "name": "",
          "type": "address"
        }
      ],
      "name": "datosAlumno",
      "outputs": [
        {
          "internalType": "string",
          "name": "nombre",
          "type": "string"
        },
        {
          "internalType": "string",
          "name": "email",
          "type": "string"
        }
      ],
      "payable": false,
      "stateMutability": "view",
      "type": "function"
    },
    {
      "constant": true,
      "inputs": [
        {
          "internalType": "uint256",
          "name": "",
          "type": "uint256"
        }
      ],
      "name": "evaluaciones",
      "outputs": [
        {
          "internalType": "string",
          "name": "nombre",
          "type": "string"
        },
        {
          "internalType": "uint256",
          "name": "fecha",
          "type": "uint256"
        },
        {
          "internalType": "uint256",
          "name": "puntos",
          "type": "uint256"
        }
      ],
      "payable": false,
      "stateMutability": "view",
      "type": "function"
    },
    {
      "constant": true,
      "inputs": [
        {
          "internalType": "uint256",
          "name": "",
          "type": "uint256"
        }
      ],
      "name": "matriculas",
      "outputs": [
        {
          "internalType": "address",
          "name": "",
          "type": "address"
        }
      ],
      "payable": false,
      "stateMutability": "view",
      "type": "function"
    },
    {
      "constant": true,
      "inputs": [],
      "name": "nombre",
      "outputs": [
        {
          "internalType": "string",
          "name": "",
          "type": "string"
        }
      ],
      "payable": false,
      "stateMutability": "view",
      "type": "function"
    },
    {
      "constant": true,
      "inputs": [],
      "name": "profesor",
      "outputs": [
        {
          "internalType": "address",
          "name": "",
          "type": "address"
        }
      ],
      "payable": false,
      "stateMutability": "view",
      "type": "function"
    },
    {
      "constant": true,
      "inputs": [],
      "name": "evaluacionesLength",
      "outputs": [
        {
          "internalType": "uint256",
          "name": "",
          "type": "uint256"
        }
      ],
      "payable": false,
      "stateMutability": "view",
      "type": "function"
    },
    {
      "constant": false,
      "inputs": [
        {
          "internalType": "string",
          "name": "_nombre",
          "type": "string"
        },
        {
          "internalType": "uint256",
          "name": "_fecha",
          "type": "uint256"
        },
        {
          "internalType": "uint256",
          "name": "_puntos",
          "type": "uint256"
        }
      ],
      "name": "creaEvaluacion",
      "outputs": [
        {
          "internalType": "uint256",
          "name": "",
          "type": "uint256"
        }
      ],
      "payable": false,
      "stateMutability": "nonpayable",
      "type": "function"
    },
    {
      "constant": true,
      "inputs": [],
      "name": "matriculasLength",
      "outputs": [
        {
          "internalType": "uint256",
          "name": "",
          "type": "uint256"
        }
      ],
      "payable": false,
      "stateMutability": "view",
      "type": "function"
    },
    {
      "constant": false,
      "inputs": [
        {
          "internalType": "string",
          "name": "_nombre",
          "type": "string"
        },
        {
          "internalType": "string",
          "name": "_email",
          "type": "string"
        }
      ],
      "name": "automatricula",
      "outputs": [],
      "payable": false,
      "stateMutability": "nonpayable",
      "type": "function"
    },
    {
      "constant": true,
      "inputs": [],
      "name": "quienSoy",
      "outputs": [
        {
          "internalType": "string",
          "name": "_nombre",
          "type": "string"
        },
        {
          "internalType": "string",
          "name": "_email",
          "type": "string"
        }
      ],
      "payable": false,
      "stateMutability": "view",
      "type": "function"
    },
    {
      "constant": false,
      "inputs": [
        {
          "internalType": "address",
          "name": "alumno",
          "type": "address"
        },
        {
          "internalType": "uint256",
          "name": "evaluacion",
          "type": "uint256"
        },
        {
          "internalType": "enum Asignatura.TipoNota",
          "name": "tipo",
          "type": "uint8"
        },
        {
          "internalType": "uint256",
          "name": "calificacion",
          "type": "uint256"
        }
      ],
      "name": "califica",
      "outputs": [],
      "payable": false,
      "stateMutability": "nonpayable",
      "type": "function"
    },
    {
      "constant": true,
      "inputs": [
        {
          "internalType": "uint256",
          "name": "evaluacion",
          "type": "uint256"
        }
      ],
      "name": "miNota",
      "outputs": [
        {
          "internalType": "enum Asignatura.TipoNota",
          "name": "tipo",
          "type": "uint8"
        },
        {
          "internalType": "uint256",
          "name": "calificacion",
          "type": "uint256"
        }
      ],
      "payable": false,
      "stateMutability": "view",
      "type": "function"
    }
  ],
  "bytecode": "0x60806040523480156200001157600080fd5b5060405162001bfe38038062001bfe833981810160405260408110156200003757600080fd5b81019080805160405193929190846401000000008211156200005857600080fd5b838201915060208201858111156200006f57600080fd5b82518660018202830111640100000000821117156200008d57600080fd5b8083526020830192505050908051906020019080838360005b83811015620000c3578082015181840152602081019050620000a6565b50505050905090810190601f168015620000f15780820380516001836020036101000a031916815260200191505b50604052602001805160405193929190846401000000008211156200011557600080fd5b838201915060208201858111156200012c57600080fd5b82518660018202830111640100000000821117156200014a57600080fd5b8083526020830192505050908051906020019080838360005b838110156200018057808201518184015260208101905062000163565b50505050905090810190601f168015620001ae5780820380516001836020036101000a031916815260200191505b50604052505050336000806101000a81548173ffffffffffffffffffffffffffffffffffffffff021916908373ffffffffffffffffffffffffffffffffffffffff16021790555081600190805190602001906200020d9291906200022f565b508060029080519060200190620002269291906200022f565b505050620002de565b828054600181600116156101000203166002900490600052602060002090601f016020900481019282601f106200027257805160ff1916838001178555620002a3565b82800160010185558215620002a3579182015b82811115620002a257825182559160200191906001019062000285565b5b509050620002b29190620002b6565b5090565b620002db91905b80821115620002d7576000816000905550600101620002bd565b5090565b90565b61191080620002ee6000396000f3fe608060405234801561001057600080fd5b50600436106100ea5760003560e01c80639e1d8f4b1161008c578063d017da1f11610066578063d017da1f14610717578063d27c3f3c146107fa578063deafcc4114610851578063df096576146108d4576100ea565b80639e1d8f4b14610608578063bc7b35b214610626578063c7918139146106a9576100ea565b8063488cf4f5116100c8578063488cf4f514610280578063537668831461029e57806361d4c6ad1461038d5780636bf8aad6146104df576100ea565b806330322c9b146100ef57806342a6dde21461015457806344f7a8cc146101cb575b600080fd5b6101526004803603608081101561010557600080fd5b81019080803573ffffffffffffffffffffffffffffffffffffffff16906020019092919080359060200190929190803560ff1690602001909291908035906020019092919050505061091e565b005b6101a06004803603604081101561016a57600080fd5b81019080803573ffffffffffffffffffffffffffffffffffffffff16906020019092919080359060200190929190505050610a98565b604051808360028111156101b057fe5b60ff1681526020018281526020019250505060405180910390f35b6101f7600480360360208110156101e157600080fd5b8101908080359060200190929190505050610ad6565b6040518080602001848152602001838152602001828103825285818151815260200191508051906020019080838360005b83811015610243578082015181840152602081019050610228565b50505050905090810190601f1680156102705780820380516001836020036101000a031916815260200191505b5094505050505060405180910390f35b610288610ba5565b6040518082815260200191505060405180910390f35b6102a6610bb2565b604051808060200180602001838103835285818151815260200191508051906020019080838360005b838110156102ea5780820151818401526020810190506102cf565b50505050905090810190601f1680156103175780820380516001836020036101000a031916815260200191505b50838103825284818151815260200191508051906020019080838360005b83811015610350578082015181840152602081019050610335565b50505050905090810190601f16801561037d5780820380516001836020036101000a031916815260200191505b5094505050505060405180910390f35b6104dd600480360360408110156103a357600080fd5b81019080803590602001906401000000008111156103c057600080fd5b8201836020820111156103d257600080fd5b803590602001918460018302840111640100000000831117156103f457600080fd5b91908080601f016020809104026020016040519081016040528093929190818152602001838380828437600081840152601f19601f8201169050808301925050505050505091929192908035906020019064010000000081111561045757600080fd5b82018360208201111561046957600080fd5b8035906020019184600183028401116401000000008311171561048b57600080fd5b91908080601f016020809104026020016040519081016040528093929190818152602001838380828437600081840152601f19601f820116905080830192505050505050509192919290505050610ea1565b005b610521600480360360208110156104f557600080fd5b81019080803573ffffffffffffffffffffffffffffffffffffffff169060200190929190505050611166565b604051808060200180602001838103835285818151815260200191508051906020019080838360005b8381101561056557808201518184015260208101905061054a565b50505050905090810190601f1680156105925780820380516001836020036101000a031916815260200191505b50838103825284818151815260200191508051906020019080838360005b838110156105cb5780820151818401526020810190506105b0565b50505050905090810190601f1680156105f85780820380516001836020036101000a031916815260200191505b5094505050505060405180910390f35b6106106112ba565b6040518082815260200191505060405180910390f35b61062e6112c7565b6040518080602001828103825283818151815260200191508051906020019080838360005b8381101561066e578082015181840152602081019050610653565b50505050905090810190601f16801561069b5780820380516001836020036101000a031916815260200191505b509250505060405180910390f35b6106d5600480360360208110156106bf57600080fd5b8101908080359060200190929190505050611365565b604051808273ffffffffffffffffffffffffffffffffffffffff1673ffffffffffffffffffffffffffffffffffffffff16815260200191505060405180910390f35b6107e46004803603606081101561072d57600080fd5b810190808035906020019064010000000081111561074a57600080fd5b82018360208201111561075c57600080fd5b8035906020019184600183028401116401000000008311171561077e57600080fd5b91908080601f016020809104026020016040519081016040528093929190818152602001838380828437600081840152601f19601f82011690508083019250505050505050919291929080359060200190929190803590602001909291905050506113a1565b6040518082815260200191505060405180910390f35b6108266004803603602081101561081057600080fd5b81019080803590602001909291905050506114f3565b6040518083600281111561083657fe5b60ff1681526020018281526020019250505060405180910390f35b6108596116e7565b6040518080602001828103825283818151815260200191508051906020019080838360005b8381101561089957808201518184015260208101905061087e565b50505050905090810190601f1680156108c65780820380516001836020036101000a031916815260200191505b509250505060405180910390f35b6108dc611785565b604051808273ffffffffffffffffffffffffffffffffffffffff1673ffffffffffffffffffffffffffffffffffffffff16815260200191505060405180910390f35b6000809054906101000a900473ffffffffffffffffffffffffffffffffffffffff1673ffffffffffffffffffffffffffffffffffffffff163373ffffffffffffffffffffffffffffffffffffffff16146109e0576040517f08c379a000000000000000000000000000000000000000000000000000000000815260040180806020018281038252601a8152602001807f536f6c6f207065726d697469646f20616c2070726f6665736f7200000000000081525060200191505060405180910390fd5b6109e86117aa565b60405180604001604052808460028111156109ff57fe5b815260200183815250905080600660008773ffffffffffffffffffffffffffffffffffffffff1673ffffffffffffffffffffffffffffffffffffffff168152602001908152602001600020600086815260200190815260200160002060008201518160000160006101000a81548160ff02191690836002811115610a7f57fe5b0217905550602082015181600101559050505050505050565b6006602052816000526040600020602052806000526040600020600091509150508060000160009054906101000a900460ff16908060010154905082565b60038181548110610ae357fe5b9060005260206000209060030201600091509050806000018054600181600116156101000203166002900480601f016020809104026020016040519081016040528092919081815260200182805460018160011615610100020316600290048015610b8f5780601f10610b6457610100808354040283529160200191610b8f565b820191906000526020600020905b815481529060010190602001808311610b7257829003601f168201915b5050505050908060010154908060020154905083565b6000600380549050905090565b6060806060600460003373ffffffffffffffffffffffffffffffffffffffff1673ffffffffffffffffffffffffffffffffffffffff1681526020019081526020016000206000018054600181600116156101000203166002900480601f016020809104026020016040519081016040528092919081815260200182805460018160011615610100020316600290048015610c8d5780601f10610c6257610100808354040283529160200191610c8d565b820191906000526020600020905b815481529060010190602001808311610c7057829003601f168201915b505050505090506060819050600081511415610cf4576040517f08c379a00000000000000000000000000000000000000000000000000000000081526004018080602001828103825260258152602001806118b76025913960400191505060405180910390fd5b610cfc6117cf565b600460003373ffffffffffffffffffffffffffffffffffffffff1673ffffffffffffffffffffffffffffffffffffffff168152602001908152602001600020604051806040016040529081600082018054600181600116156101000203166002900480601f016020809104026020016040519081016040528092919081815260200182805460018160011615610100020316600290048015610ddf5780601f10610db457610100808354040283529160200191610ddf565b820191906000526020600020905b815481529060010190602001808311610dc257829003601f168201915b50505050508152602001600182018054600181600116156101000203166002900480601f016020809104026020016040519081016040528092919081815260200182805460018160011615610100020316600290048015610e815780601f10610e5657610100808354040283529160200191610e81565b820191906000526020600020905b815481529060010190602001808311610e6457829003601f168201915b505050505081525050905080600001519450806020015193505050509091565b6060600460003373ffffffffffffffffffffffffffffffffffffffff1673ffffffffffffffffffffffffffffffffffffffff1681526020019081526020016000206000018054600181600116156101000203166002900480601f016020809104026020016040519081016040528092919081815260200182805460018160011615610100020316600290048015610f795780601f10610f4e57610100808354040283529160200191610f79565b820191906000526020600020905b815481529060010190602001808311610f5c57829003601f168201915b5050505050905060608190506000815114610fdf576040517f08c379a000000000000000000000000000000000000000000000000000000000815260040180806020018281038252602881526020018061188f6028913960400191505060405180910390fd5b606084905060008151141561105c576040517f08c379a000000000000000000000000000000000000000000000000000000000815260040180806020018281038252601c8152602001807f456c206e6f6d627265206e6f2070756564652073657220766163696f0000000081525060200191505060405180910390fd5b6110646117cf565b604051806040016040528087815260200186815250905080600460003373ffffffffffffffffffffffffffffffffffffffff1673ffffffffffffffffffffffffffffffffffffffff16815260200190815260200160002060008201518160000190805190602001906110d79291906117e9565b5060208201518160010190805190602001906110f49291906117e9565b5090505060053390806001815401808255809150509060018203906000526020600020016000909192909190916101000a81548173ffffffffffffffffffffffffffffffffffffffff021916908373ffffffffffffffffffffffffffffffffffffffff16021790555050505050505050565b6004602052806000526040600020600091509050806000018054600181600116156101000203166002900480601f0160208091040260200160405190810160405280929190818152602001828054600181600116156101000203166002900480156112125780601f106111e757610100808354040283529160200191611212565b820191906000526020600020905b8154815290600101906020018083116111f557829003601f168201915b505050505090806001018054600181600116156101000203166002900480601f0160208091040260200160405190810160405280929190818152602001828054600181600116156101000203166002900480156112b05780601f10611285576101008083540402835291602001916112b0565b820191906000526020600020905b81548152906001019060200180831161129357829003601f168201915b5050505050905082565b6000600580549050905090565b60018054600181600116156101000203166002900480601f01602080910402602001604051908101604052809291908181526020018280546001816001161561010002031660029004801561135d5780601f106113325761010080835404028352916020019161135d565b820191906000526020600020905b81548152906001019060200180831161134057829003601f168201915b505050505081565b6005818154811061137257fe5b906000526020600020016000915054906101000a900473ffffffffffffffffffffffffffffffffffffffff1681565b60008060009054906101000a900473ffffffffffffffffffffffffffffffffffffffff1673ffffffffffffffffffffffffffffffffffffffff163373ffffffffffffffffffffffffffffffffffffffff1614611465576040517f08c379a000000000000000000000000000000000000000000000000000000000815260040180806020018281038252601a8152602001807f536f6c6f207065726d697469646f20616c2070726f6665736f7200000000000081525060200191505060405180910390fd5b60036040518060600160405280868152602001858152602001848152509080600181540180825580915050906001820390600052602060002090600302016000909192909190915060008201518160000190805190602001906114c99291906117e9565b50602082015181600101556040820151816002015550505060016003805490500390509392505050565b6000806060600460003373ffffffffffffffffffffffffffffffffffffffff1673ffffffffffffffffffffffffffffffffffffffff1681526020019081526020016000206000018054600181600116156101000203166002900480601f0160208091040260200160405190810160405280929190818152602001828054600181600116156101000203166002900480156115ce5780601f106115a3576101008083540402835291602001916115ce565b820191906000526020600020905b8154815290600101906020018083116115b157829003601f168201915b505050505090506060819050600081511415611635576040517f08c379a00000000000000000000000000000000000000000000000000000000081526004018080602001828103825260258152602001806118b76025913960400191505060405180910390fd5b61163d6117aa565b600660003373ffffffffffffffffffffffffffffffffffffffff1673ffffffffffffffffffffffffffffffffffffffff16815260200190815260200160002060008781526020019081526020016000206040518060400160405290816000820160009054906101000a900460ff1660028111156116b657fe5b60028111156116c157fe5b815260200160018201548152505090508060000151945080602001519350505050915091565b60028054600181600116156101000203166002900480601f01602080910402602001604051908101604052809291908181526020018280546001816001161561010002031660029004801561177d5780601f106117525761010080835404028352916020019161177d565b820191906000526020600020905b81548152906001019060200180831161176057829003601f168201915b505050505081565b6000809054906101000a900473ffffffffffffffffffffffffffffffffffffffff1681565b6040518060400160405280600060028111156117c257fe5b8152602001600081525090565b604051806040016040528060608152602001606081525090565b828054600181600116156101000203166002900490600052602060002090601f016020900481019282601f1061182a57805160ff1916838001178555611858565b82800160010185558215611858579182015b8281111561185757825182559160200191906001019061183c565b5b5090506118659190611869565b5090565b61188b91905b8082111561188757600081600090555060010161186f565b5090565b9056fe536f6c6f207065726d697469646f206120616c756d6e6f73206e6f206d6174726963756c61646f73536f6c6f207065726d697469646f206120616c756d6e6f73206d6174726963756c61646f73a265627a7a723158202bd9e4612a2e65e9b6f38f029ba04c8d2f7300f5e305b527da260e0b387a518c64736f6c634300050c0032",
  "source": "pragma solidity >=0.5.12 <0.6.0;\r\n\r\ncontract Asignatura {\r\n    \r\n    /// address del profesor que ha desplegado el contrato\r\n    address public profesor;\r\n    \r\n    string public nombre;\r\n    string public curso;\r\n    \r\n    struct Evaluacion {\r\n        string nombre;\r\n        uint fecha;\r\n        uint puntos;\r\n    }\r\n    \r\n    Evaluacion[] public evaluaciones;\r\n\r\n    struct DatosAlumno {\r\n        string nombre;\r\n        string email;\r\n    }\r\n    \r\n    mapping (address => DatosAlumno) public datosAlumno;\r\n    \r\n    // Array con las direcciones de los alumnos amtriculados\r\n    address[] public matriculas;\r\n    \r\n    \r\n    enum TipoNota { NP, Normal, MH }\r\n    \r\n    struct Nota {\r\n        TipoNota tipo;\r\n        uint calificacion;\r\n    }\r\n    \r\n    \r\n    // Dada la direccion de un alumno, y el indice de la evaluacion, devuelve\r\n    // la nota del alumno.\r\n    mapping (address => mapping (uint => Nota)) public calificaciones;\r\n    \r\n    \r\n    constructor(string memory _nombre, string memory _curso) public {\r\n        \r\n        profesor = msg.sender;\r\n        nombre = _nombre;\r\n        curso = _curso;\r\n    }\r\n    \r\n    \r\n    function evaluacionesLength() public view returns(uint) {\r\n        return evaluaciones.length;\r\n    }\r\n    \r\n    function creaEvaluacion(string memory _nombre, uint _fecha, uint _puntos) soloProfesor public returns (uint) {\r\n        evaluaciones.push(Evaluacion(_nombre, _fecha, _puntos));\r\n        return evaluaciones.length - 1;\r\n    }\r\n    \r\n    \r\n    function matriculasLength() public view returns(uint) {\r\n        return matriculas.length;\r\n    }\r\n    \r\n    function automatricula(string memory _nombre, string memory _email) noMatriculados public {\r\n        \r\n        bytes memory b = bytes(_nombre);\r\n        require(b.length != 0, \"El nombre no puede ser vacio\");\r\n        \r\n        DatosAlumno memory datos = DatosAlumno(_nombre, _email);\r\n        \r\n        datosAlumno[msg.sender] = datos;\r\n        \r\n        matriculas.push(msg.sender);\r\n        \r\n    }\r\n    \r\n    function quienSoy() soloMatriculados public view returns (string memory _nombre, string memory _email) {\r\n        DatosAlumno memory datos = datosAlumno[msg.sender];\r\n        _nombre = datos.nombre;\r\n        _email = datos.email;\r\n    }\r\n    \r\n    function califica(address alumno, uint evaluacion, TipoNota tipo, uint calificacion) soloProfesor public {\r\n        \r\n        Nota memory nota = Nota(tipo, calificacion);\r\n        \r\n        calificaciones[alumno][evaluacion] = nota;\r\n    }\r\n    \r\n    function miNota(uint evaluacion) soloMatriculados public view returns (TipoNota tipo, uint calificacion) {\r\n        \r\n        Nota memory nota = calificaciones[msg.sender][evaluacion];\r\n        \r\n        tipo = nota.tipo;\r\n        calificacion = nota.calificacion;\r\n    }\r\n    \r\n    modifier soloProfesor() {\r\n        \r\n        require(msg.sender == profesor, \"Solo permitido al profesor\");\r\n        _;\r\n    }\r\n    \r\n    \r\n    modifier soloMatriculados() {\r\n        \r\n        string memory _nombre = datosAlumno[msg.sender].nombre;\r\n        \r\n        bytes memory b = bytes(_nombre);\r\n        \r\n        require(b.length != 0, \"Solo permitido a alumnos matriculados\");\r\n        _;\r\n        \r\n    }\r\n    \r\n    \r\n    modifier noMatriculados() {\r\n        \r\n        string memory _nombre = datosAlumno[msg.sender].nombre;\r\n        \r\n        bytes memory b = bytes(_nombre);\r\n        \r\n        require(b.length == 0, \"Solo permitido a alumnos no matriculados\");\r\n        _;\r\n        \r\n    }\r\n}\r\n",
  "sourcePath": "C:/Users/danie/Desktop/BCDA/Practica3/p3_oficial/contracts/Asignatura.sol",
  "compiler": {
    "name": "solc",
    "version": "0.5.12+commit.7709ece9.Emscripten.clang"
  },
  "schemaVersion": "3.0.19",
  "updatedAt": "2020-01-04T14:49:43.541Z",
  "networkType": "ethereum",
  "devdoc": {
    "methods": {}
  },
  "userdoc": {
    "methods": {}
  }
}